:100000000C9483000C9495000C9495000C9495002E
:100010000C9495000C9495000C9495000C94A810E9
:100020000C9495000C9478100C943B0F0C94690F71
:100030000C949A0F0C94CB0F0C9495000C94950093
:100040000C9495000C9495000C9495000C949500DC
:100050000C9495000C9495000C9456130C949500F8
:100060000C9438110C9495007B0846074A075B07EF
:100070006B0793077608880888089F07BA07410B23
:10008000730B4E0B730B4E0B640B700B5E0B880BDC
:10009000640B700BFD000000000061020000B8005E
:1000A000B0000000BD0004020000C200A701000073
:1000B000C7004A010000CC000194000000029A0031
:1000C000000001A000000001A600000001AC00003B
:1000D000003A125F115F1164117C1164117D11816E
:1000E000118211831187119C11D811D811E811E8E0
:1000F00011EC11ED11FF1112122412B011B011B553
:1001000011CB11CB110011241FBECFEFD8E0DEBF01
:10011000CDBF15E0A0E0B1E001C01D92A533B1074D
:10012000E1F70E9458150C9460160C9400000E9490
:10013000BD140895CF930E942311C82F0E94B414B8
:100140009B01AC01AC2FB0E00E9497152CE930E088
:1001500040E050E00E94B615CA01B901CF91089560
:100160006F927F928F92AF92CF92EF920F93CF9335
:10017000DF93CDB7DEB72B970FB6F894DEBF0FBE77
:10018000CDBF3C01DC01ED91FC91309709F0099461
:1001900088EC90E0F3019183808384E0882EA12C89
:1001A000C12CE12C00E02CE041E061E0CE010196A1
:1001B0000E947E06811102C080E00FC0BE016F5F09
:1001C0007F4F8EE294E00E94E4138130A9F787EE1E
:1001D00090E0D3018D939C9381E02B960FB6F89419
:1001E000DEBF0FBECDBFDF91CF910F91EF90CF90CB
:1001F000AF908F907F906F9008956F927F928F92C3
:10020000AF92CF92EF920F93CF93DF93CDB7DEB73C
:100210002B970FB6F894DEBF0FBECDBF3C01DC01BB
:10022000ED91FC91309709F0099485E191E0F3019B
:100230009183808386E0882EA12CC12CE12C00E0E4
:100240002CE041E061E0CE0101960E947E06811122
:1002500002C080E00FC0BE016F5F7F4F8EE294E06E
:100260000E94E4138130A9F784E391E0D3018D93D8
:100270009C9381E02B960FB6F894DEBF0FBECDBFE6
:10028000DF91CF910F91EF90CF90AF908F907F90B3
:100290006F9008956F927F928F92AF92CF92EF926C
:1002A0000F93CF93DF93CDB7DEB72B970FB6F894AC
:1002B000DEBF0FBECDBF3C01DC01ED91FC9130975C
:1002C00009F0099482E691E0F30191838083882408
:1002D0008394A12CC12CE12C00E02CE041E061E0F2
:1002E000CE0101960E947E06811102C080E01FC0EF
:1002F000BE016F5F7F4F8EE294E00E94E413813075
:10030000A9F70E94D014DC01CB01805F984DAF4F5C
:10031000BF4F8093D0039093D103A093D203B093A7
:10032000D30381E991E0D3018D939C9381E02B96D7
:100330000FB6F894DEBF0FBECDBFDF91CF910F9106
:10034000EF90CF90AF908F907F906F9008956F92C5
:100350007F928F92AF92CF92EF920F93CF93DF93D2
:10036000CDB7DEB72B970FB6F894DEBF0FBECDBF6B
:100370003C01DC01ED91FC91309709F009948FEB81
:1003800091E0F3019183808382E0882EA12CC12C1F
:10039000E12C00E02CE041E061E0CE0101960E94FA
:1003A0007E06811102C080E01FC0BE016F5F7F4FDB
:1003B0008EE294E00E94E4138130A9F70E94D014E9
:1003C000DC01CB01805B9C43AF4FBF4F8093D003D8
:1003D0009093D103A093D203B093D3038EEE91E018
:1003E000D3018D939C9381E02B960FB6F894DEBFDA
:1003F0000FBECDBFDF91CF910F91EF90CF90AF9017
:100400008F907F906F9008956F927F928F92AF92AE
:10041000CF92EF920F93CF93DF93CDB7DEB72B97A9
:100420000FB6F894DEBF0FBECDBF3C01DC01ED91ED
:10043000FC91309709F009948CE192E0F3019183EB
:10044000808383E0882EA12CC12CE12C00E02CE0DD
:1004500041E061E0CE0101960E947E06811102C05A
:1004600080E01FC0BE016F5F7F4F8EE294E00E946C
:10047000E4138130A9F70E94D014DC01CB01805E27
:10048000914BAF4FBF4F8093D0039093D103A09374
:10049000D203B093D3038BE492E0D3018D939C936A
:1004A00081E02B960FB6F894DEBF0FBECDBFDF9173
:1004B000CF910F91EF90CF90AF908F907F906F90F2
:1004C00008956F927F928F92AF92CF92DF92EF92C8
:1004D000FF920F93CF93DF93CDB7DEB72B970FB675
:1004E000F894DEBF0FBECDBF3C01DC01ED91FC9165
:1004F000309709F009948BE792E0F30191838083B0
:1005000085E0882EA12CC12CE12C00E02CE041E0FC
:1005100061E0CE0101960E947E06811102C080E05A
:100520002FC0BE016F5F7F4F8EE294E00E94E41304
:100530008130A9F70E94D0146B017C018091E40303
:10054000282F30E0A0E1B7E20E9488152AE030E0D1
:1005500040E050E00E94B615D701C601820F931FFC
:10056000A41FB51F8093D0039093D103A093D2030F
:10057000B093D3038AEB92E0D3018D939C9381E0F7
:100580002B960FB6F894DEBF0FBECDBFDF91CF9193
:100590000F91FF90EF90DF90CF90AF908F907F9072
:1005A0006F900895A1E0B0E0E8EDF2E00C94E21560
:1005B0008C01DC01ED91FC91309709F009948FEDED
:1005C00092E0F801918380830E94D014C090D00300
:1005D000D090D103E090D203F090D303C616D70693
:1005E000E806F906F0F48FEF9FEFDC018093D0036B
:1005F0009093D103A093D203B093D3038EEF92E0F4
:10060000D8018D939C9381E08983BE016F5F7F4FFA
:1006100085EE93E00E94E413813019F4F801118211
:10062000108280E02196E8E00C94FE15FC018581A3
:10063000882331F08F3F41F48091E403868308954D
:1006400086818093E4030895848181608483089582
:10065000A1E0B0E0EEE2F3E00C94E6158C01DC01E1
:10066000ED91FC91309709F0099485E393E0F8014E
:100670009183808363E274E086EF93E00E941F140D
:10068000813009F04BC08091270481FD44C08091E6
:100690002604843189F018F48031E9F122C08631D2
:1006A000E1F08F33F1F480917104816080937104E3
:1006B000F8011182108232C08CE593E0F801918339
:1006C000808382E08983BE016F5F7F4F85EE93E078
:1006D0000E94E413813011F504C083E294E00E948B
:1006E0001603809124049091230490932404809312
:1006F0002304809127048260809327048EE793E08F
:10070000D8018D939C9363E274E08EE294E00E94A2
:10071000E413813019F4D8011D921C9280E02196D7
:10072000E4E00C940216CF93DF93EC01E881F981A9
:10073000309709F009948BE993E09983888366E602
:1007400074E08EE294E00E941F148130B1F486EBD5
:1007500093E00E944F0D8BEA93E09983888366E6CD
:1007600074E086EB93E00E949F0D813031F486EBBC
:1007700093E00E94760D1982188280E0DF91CF917C
:100780000895CF93DF9362EB70E087EC93E00E94D3
:10079000F71421E030E045E050E061EF73E085EED2
:1007A00093E00E94D6132BE030E043E050E062E09B
:1007B00074E086EF93E00E94D6132BE030E044E033
:1007C00050E06AE374E08EE294E00E94D613C6EB38
:1007D000D3E087E0888319821A8281E58B831C82AB
:1007E0001D821E821F8280E8888786EF93E09A87A9
:1007F0008987CE010E94350D1C861B861E861D86AC
:10080000188A1F868FEF9FEFDC018A8F9B8FAC8F3A
:10081000BD8F80E29EE4A0E0B0E08E8F9F8FA8A302
:10082000B9A3E1E7F4E080818E7F8083DF91CF91EF
:100830000895A1E0B0E0EFE1F4E00C94E8158091B8
:10084000710480FF04C081EC93E00E94D20283EC2B
:1008500093E00E9428038091710480FF12C0BE01C2
:100860006F5F7F4F85EE93E00E941F14813029F463
:10087000698187EC93E00E94231587EC93E00E9446
:10088000171585EC93E00E9493032196E2E00C9407
:100890000416E0917204F0917304309709F0099402
:1008A00080E594E090937304809372046DED74E09E
:1008B00080EB94E00E941F148130D1F486E794E02D
:1008C0000E944F0D82E694E090937304809372042B
:1008D0006DED74E086E794E00E949F0D813041F455
:1008E00086E794E00E94760D1092730410927204D1
:1008F00080E00895E0917404F0917504309709F058
:10090000099481E894E0909375048093740468EEF0
:1009100074E083E894E00E941F14813009F07EC0E7
:100920008091EC0481FF05C010927504109274044C
:1009300075C08E7F8093EC049091EB04973119F091
:10094000983129F14CC08091EE049091ED04903CD7
:1009500009F048C08F30A9F0813C31F0893009F0AE
:1009600041C08091810402C08091820424E6820209
:10097000C001112469E070E00E94A2156854744F10
:1009800002C060E070E081E00E944C102BC09091AA
:10099000ED04903C21F59091EE049E3491F09A354F
:1009A000F1F49091EF04993039F0913CC1F48091C9
:1009B000F0048093820416C08091F0048093810437
:1009C00011C09091EF04993029F0913C41F480914D
:1009D000820402C0809181048093F00403C081608E
:1009E0008093EC048091E9049091E8049093E904E9
:1009F0008093E8048091EC0482608093EC048FEF94
:100A000094E0909375048093740468EE74E080EB36
:100A100094E00E94E413813009F486CF80E00895C9
:100A2000EF92FF920F931F93CF93DF932BE030E071
:100A300043E050E06FE874E083E894E00E94D6134E
:100A40002BE030E043E050E06CEB74E080EB94E0AE
:100A50000E94D613C2E7D4E08AE08C831D821E82F6
:100A600080E88F8381E0888719861A861B861C861A
:100A700083E894E09E878D8786E794E00E94350D99
:100A80001B821A8219821882219AE12CF12C00E033
:100A900010E02AE04EE062E080E00E94FC0F60E49B
:100AA0007CE980E00E944C100E942D10CDB7DEB78B
:100AB000E6E00C9400160E947A040E94490408950E
:100AC0000F931F93E091F504F091F604309709F02D
:100AD000099489E695E09093F6048093F5040E94CA
:100AE000D0140091300510913105209132053091DC
:100AF0003305061717072807390708F041C0D90141
:100B0000C8018C599F4FAF4FBF4F809330059093D2
:100B10003105A0933205B093330580912F051899C4
:100B200002C09FEF01C091E0890F87FD03C0809351
:100B30002F0502C010922F0580912F058630E4F01A
:100B400081E08093240584E18093270587EF94E07A
:100B50000E944F0D8AEA95E09093F6048093F50485
:100B600064E275E087EF94E00E949F0D813041F4CC
:100B700087EF94E00E94760D1092F6041092F5042F
:100B800080E01F910F91089584EC95E09093F40418
:100B90008093F30469E175E08DE095E00E941F14F5
:100BA000813049F590911C05903109F590911D0512
:100BB00091FD1DC090911E059E35B9F490911F05C1
:100BC000943099F4809334050E94D014DC01CB0159
:100BD0008C599F4FAF4FBF4F809330059093310595
:100BE000A0933205B093330502C0109234051092E1
:100BF000F4041092F30480E00895CF93DF932BE088
:100C000030E041E050E062E075E08DE095E00E9468
:100C1000D613C3EFD4E088E08C831D821E8281E16D
:100C20008F83188619861A861B861C868DE095E0B0
:100C30009E878D8787EF94E00E94350D10923405D2
:100C40001CAE1092300510923105109232051092B0
:100C50003305198218821B821A822098289A559A85
:100C60005D9ADF91CF9108950E94C405809134056B
:100C700081110E94600508950F93FC0160834183F8
:100C800023830295000F007E048381E00F91089575
:100C9000EF920F93FC016083418323830295000F41
:100CA000007E0483E58281E00F91EF900895CF925A
:100CB000EF920F93FC016083418323830295000F21
:100CC000007E0483E582C68281E00F91EF90CF9091
:100CD0000895AF92CF92EF920F93FC01608341830E
:100CE00023830295000F007E0483E582C682A782DB
:100CF00081E00F91EF90CF90AF9008958F92AF92D7
:100D0000CF92EF920F93CF93DF93CDB7DEB7FC0175
:100D10006083418323830295000F007E0483E58274
:100D2000C682A782808681E0DF91CF910F91EF90FC
:100D3000CF90AF908F9008958F92AF92CF92EF9215
:100D40000F93CF93DF93CDB7DEB7FC016083418370
:100D500023830295000F007E0483E582C682A7826A
:100D600080868A85818781E0DF91CF910F91EF9016
:100D7000CF90AF908F9008958F92AF92CF92EF92D5
:100D80000F93CF93DF93CDB7DEB7FC016083418330
:100D900023830295000F007E0483E582C682A7822A
:100DA00080868A8581878B85828781E0DF91CF91DC
:100DB0000F91EF90CF90AF908F900895CF92DF92E8
:100DC000EF92FF92CF93DF93EC01E881F9813097A6
:100DD00009F009941092CB011092CA018091CC01C4
:100DE00081608093CC0190914201892F837009F03A
:100DF0008FC180913F018093B10180913E0180932A
:100E0000B201809140018093B3018091B50182606D
:100E100090FB80F9E0914101E093B40193FB22271C
:100E200020F920FB83F99295917090FB84F98093CF
:100E3000B501A0914301A093B60180914401809334
:100E4000B701209145012093B801909146019093FC
:100E5000B901309147013093BA0130914801309384
:100E6000BB01B0E0BA2FAA27A80FB11DB093C901EA
:100E7000A093C8014E2F50E0FA013297EB30F105F4
:100E800008F046C1EC5CFF4F0C940F168C91119644
:100E90009C914CC030E0322F2227290F311D2C931A
:100EA00011963C932093CA013093CB013093B80143
:100EB0002093B90120C142E06AEC71E0CD010E94AB
:100EC000931381E697E0998388830E94CD13811163
:100ED00025C080E025C130E0322F2227290F311DA7
:100EE0003093CB012093CA0142E06AEC71E0CD015E
:100EF0000E94A9138AE797E0998388830E94CD1303
:100F0000882339F342E06AEC71E08091C801909146
:100F1000C9010E9493138BE897E0D5CF8091CA0155
:100F20009091CB0107C0FD01859194918093CA01F6
:100F30009093CB019093B8018093B901DCC00E94DB
:100F4000D0146B017C012091C8013091C901AAE045
:100F5000B0E00E948815DC01CB018C0D9D1DAE1DFB
:100F6000BF1D80930B0190930C01A0930D01B093D2
:100F70000E01C1C09A3A09F44FC088F49A3008F0C3
:100F8000B5C0FBE09F9FC00111249093C9018093DD
:100F9000C8014BE06CEB71E00E94931391C09E3E40
:100FA00031F09F3F09F0A2C01092C70161C01092BA
:100FB000C70112C08AED97E0998388836CEB71E0DA
:100FC0008BE491E00E94E413882309F482CF80919E
:100FD000C7018F5F8093C7019091C7018091450140
:100FE000981708F088C02091C8013091C9014BE0E2
:100FF0006CEB71E0F9015BE0959FE00DF11D1124B0
:10100000CF010E94931383E098E0998388830E9424
:10101000CD138111CFCF5DCF1092C7018091C70151
:1010200090914501891708F066C0E091C801F091E0
:10103000C9019BE0899FE00DF11D11248BE0ACEB11
:10104000B1E001900D928A95E1F785E298E09983ED
:1010500088836CEB71E08BE491E00E94E4138823B9
:1010600009F437CF8091C7018F5F8093C701D6CF36
:101070008091C701909145018917E8F56091C801F9
:101080007091C901EBE08E9F600D711D11244BE042
:1010900050E08CEB91E00E944E168DE498E099832D
:1010A00088836CEB71E08BE491E00E94E413882369
:1010B00009F40FCF8091C7018F5F8093C701D8CF0C
:1010C00080E698E0998388830E94CD13882309F4F1
:1010D00000CF89E698E0998388836CEB71E08BE41C
:1010E00091E00E94E413811106C0F3CE8091B50116
:1010F00081608093B5018BE798E09983888361EBE9
:1011000071E08BE491E00E94E413882309F4E1CEBE
:101110008091CC018E7F8093CC011982188282E06D
:10112000DF91CF91FF90EF90DF90CF9008950F93D4
:101130001F93CF93DF93EC01E881F981309709F099
:10114000099481EA98E0998388836EE371E081E1F4
:1011500091E00E941F148823C1F11092B0011092F7
:10116000AF0181EB98E0998388838FEA91E00E9438
:10117000DE06823050F18BEB98E099838883809172
:101180000B0190910C01A0910D01B0910E01892BE2
:101190008A2B8B2B59F410920B0110920C01109298
:1011A0000D0110920E01198218820FC00E94D014F6
:1011B00000910B0110910C0120910D0130910E0155
:1011C000061717072807390730F380E0DF91CF9122
:1011D0001F910F910895CF93DF93DC01ED91FC9166
:1011E000309709F0099423EF38E0FC013183208324
:1011F00040910B0150910C0160910D0170910E0115
:10120000452B462B472B09F5EC0184E099E09983A7
:10121000888364EA71E08BE491E00E941F148823C4
:10122000A1F080E091E00E944F0D64EA71E080E05F
:1012300091E00E949F0D811106C064EA71E08BE489
:1012400091E00E945A141982188280E0DF91CF91B8
:101250000895ABE0B0E0EFE2F9E00C94E8152BE084
:1012600030E043E050E06DE171E081E191E00E9407
:10127000D6132BE030E047E050E067E571E08BE407
:1012800091E00E94D6131092100110920F0110925B
:101290004A011092490110920B0110920C01109218
:1012A0000D0110920E018091CC018E7F8093CC01B4
:1012B000109200018CEF8093010189E1809302017B
:1012C0001092030110920401109205011092060180
:1012D000109207011092080181E191E090930A01B8
:1012E0008093090180E091E00E94350D0E940B136C
:1012F0000E948C134BE0BE016F5F7F4F80E090E057
:101300000E9493130E94CD138823E1F389818F3FBC
:10131000A1F08A818F3F89F08C818F3F71F08D81A0
:101320008F3F59F0BE016F5F7F4F8BE491E00E94C9
:10133000E41380E091E00E944F0D2B96E2E00C94C4
:1013400004168FE091E00E94970889E491E00E94E2
:10135000EB088091CC0180FD10C08BE491E00E94ED
:101360009A14892B51F481E191E00E949A14892BFF
:1013700021F480E091E00E94760D08950F931F9371
:1013800080EC99E09093DD018093DC010E94D01401
:101390000091E4011091E5012091E6013091E7010F
:1013A000601771078207930730F1D901C8018C5982
:1013B0009F4FAF4FBF4F8093E4019093E501A093FF
:1013C000E601B093E7018091E0018F5F8093E00137
:1013D0002D9B06C09091DF01891748F02D9805C01C
:1013E0009091DE01891718F02D9A1092E001109269
:1013F000DD011092DC0180E01F910F910895E091D2
:10140000D801F091D901309709F0099486E09AE06B
:101410009093D9018093D8016CE272E085E192E06B
:101420000E941F14882309F489C08091300281FF33
:1014300005C01092D9011092D80180C082608E7FC1
:101440008093300290912F029131D1F018F49031B5
:1014500031F060C09231F9F09A3239F15BC090916D
:1014600031029E3541F09E3909F056C08091370215
:101470008093320254C080913202809337024FC071
:101480000E94D01490933102809332027093330201
:101490006093340244C090913102992321F09F3F20
:1014A000D9F55D983CC05D9A3AC09091310299306F
:1014B000C1F0913A89F580913202882349F08F3F3B
:1014C00049F58091DE01809333028091DF011FC0D6
:1014D000809133028093DE01809134028093DF019A
:1014E0001EC090913202992349F09F3FA9F4809148
:1014F000E101809333028091E20109C080913302BF
:101500008093E101809134028093E20108C08093CE
:10151000340205C0809130028160809330028FE8F0
:101520009AE09093D9018093D8016CE272E088EE42
:1015300091E00E94E413813009F47BCF80E00895AC
:10154000ABE0B0E0E6EAFAE00C94E81586EA9AE04F
:101550009093DB018093DA01BE016F5F7F4F88EECD
:1015600091E00E941F148130C1F48DEC91E00E9443
:101570004F0DBE016F5F7F4F8DEC91E00E949F0D7C
:10158000811107C0BE016F5F7F4F88EE91E00E941E
:101590005A141092DB011092DA0180E02B96E2E0FF
:1015A0000C9404162BE030E043E050E064EF71E06F
:1015B00088EE91E00E94D6132BE030E041E050E04D
:1015C00061E272E085E192E00E94D613EDECF1E079
:1015D0001686158614861386108A1786109237028F
:1015E000118A128A138A148A158A168A178A108E0B
:1015F000118E128E83E080831182128287E08383B2
:101600001482158284E086831782108685E192E039
:1016100092878187CF010E94350D84B1806384B9A0
:10162000559A5D9808950E94FF090E94A00A88EECD
:1016300091E00E949A14892B51F485E192E00E9476
:101640009A14892B21F48DEC91E00E94760D0E9472
:10165000BE090895E82F8FEF9FEFDC0180932903E7
:1016600090932A03A0932B03B0932C038E2F90E02A
:10167000FC013197EB30F105B0F5E15CFF4F0C94C4
:101680000F1680911C0380931D0380912803809383
:101690001C0380912003826081602DC080911F0314
:1016A000823088F580911C0380931D0381E0809334
:1016B0001C038091200382608E7F1DC060E070E07B
:1016C00080E00E94EB120895109227038091280376
:1016D00080931C036DE173E08AE00E94F912089583
:1016E0006A3089F40AC08091280380931C0380919A
:1016F000200382608460809320036CE173E08EE7B6
:1017000092E00E94E4130E94931281E080932703E9
:101710000895E091CC02F091CD02309709F0099440
:1017200080912703813009F584E99BE09093CD02F5
:101730008093CC026CE173E08EEC92E00E941F1467
:10174000882309F44FC00E94D014DC01CB018259D8
:101750009F4FAF4FBF4F8093290390932A03A093CD
:101760002B03B0932C031092270380911F0388232F
:1017700051F08130A1F46091200362956695677005
:1017800041E253E00FC06091200362956695677057
:1017900041E253E080911C030E94CB1207C04DE14F
:1017A00053E06AE080911C030E94AC1281110CC0CE
:1017B0008FEF9FEFDC018093290390932A03A0937E
:1017C0002B03B0932C030AC084EE9BE09093CD02D0
:1017D0008093CC0280912703813021F01092CD02BA
:1017E0001092CC0280E00895ABE0B0E0EAEFFBE0BD
:1017F0000C94DE158AEF9BE090937D0280937C022F
:10180000BE016F5F7F4F8EE792E00E941F14882316
:1018100009F442C00C8121E030E040E050E060E09B
:1018200070E080E090E00E941516F22EE32ED42E98
:10183000C52EB62EA72E982E892E08E312E0D801C9
:10184000ED91FD918D013097F9F021812F213281A9
:101850003E2143814D2154815C21A5816A2F6B215A
:10186000A6817A2F7A218781908589219821A0E00D
:101870000E942E1649F081859285009729F0BE01BD
:101880006F5F7F4F0E94E413B2E000351B07B9F68B
:1018900010927D0210927C0280E02B96ECE00C947A
:1018A000FA15A6E1B0E0E7E5FCE00C94E71587E562
:1018B0009CE09093590280935802BE016F5F7F4F66
:1018C0008AE592E00E941F14882309F443C0AE0108
:1018D0004A5E5F4FBE01645F7F4F89810E94180F8F
:1018E0008E89811104C081E08E8B89818C8710E004
:1018F0008E89181758F5ECE0F0E0EC0FFD1FE10FB2
:10190000F11D80818983813021F090912803891312
:1019100008C0BE016F5F7F4F8EE792E00E94E41324
:1019200015C0811107C0BE016F5F7F4F8EE792E047
:101930000E94E413809128038A83BE016F5F7F4F6A
:101940008EEC92E00E94E4131F5FD2CF10925902F6
:101950001092580280E06696E3E00C940316CF9351
:10196000E8E3F2E01192119282E0E035F807D1F756
:101970001092500210925102109252021092530291
:101980001092540210925502109256021092570271
:101990002BE030E041E050E066E672E08AE592E05C
:1019A0000E94D61310925902109258022BE030E098
:1019B00045E050E06AE872E08EE792E00E94D613BC
:1019C00010927D0210927C02C1E0C09328038FEF39
:1019D0009FEFDC018093290390932A03A0932B03AC
:1019E000B0932C032BE030E045E050E06AED72E06C
:1019F0008EEC92E00E94D6131092CD021092CC028F
:101A0000C093270360E070E08AE29BE00E944E12E0
:101A1000CF9108950F931F930E94D0140091290332
:101A200010912A0320912B0330912C0306171707DE
:101A30002807390788F480912703813069F0F894EA
:101A40008091200384608093200340E050E060E0B8
:101A50008CE00E942A0B78940E94890B0E94F40B60
:101A60000E94510C1F910F910895DC01892BB1F058
:101A70009C919C3030F08FEF8C9308959F5F9C3049
:101A8000D1F3E92FF0E0EE0FFF1FE85CFD4F20815E
:101A90003181232B99F7B183A0839C930895E8E3C8
:101AA000F2E021E030E0DC010C9002C0220F331F95
:101AB0000A94E2F7832F880F880B708D722B618D4B
:101AC000632B528D582B438D482B348D382B258D0D
:101AD000282B968D982BA78D8A2B708F618F528F14
:101AE000438F348F258F968F878F0895E8E3F2E038
:101AF00021E030E0DC010C9002C0220F331F0A9479
:101B0000E2F720953095832F880F880B708D722314
:101B1000618D6323528D5823438D4823348D3823A0
:101B2000258D2823968D9823A78D8A23708F618F0A
:101B3000528F438F348F258F968F878F0895A0E023
:101B4000B0E0E5EAFDE00C94DD15FB01DC017C90E2
:101B50001091500200915102F0905202E090530215
:101B6000D0905402C0905502909056028090570237
:101B7000C0E0D0E0AA24A394B12CC71508F5A501B4
:101B80000C2E02C0440F551F0A94E2F7952F990FAF
:101B9000990B212F2423302F3523492F4F21592FE3
:101BA0005E21692F6D21792F7C21892F8921982130
:101BB000A0E00E942E1689F52196CC30D105E9F6D9
:101BC000A1E0B0E0072C02C0AA0FBB1F0A94E2F705
:101BD0009B2F990F990B212F2A23302F3B23492F1D
:101BE0004F21592F5E21692F6D21792F7C21892F5B
:101BF00089219821A0E00E942E1679F0848181FD30
:101C000006C080912D038F5F80932D038283BF01D7
:101C10008AE592E00E94E41301C080E0CDB7DEB710
:101C2000EDE00C94F915809328030E947912089531
:101C30000E9487120895CF93E0918603F091870365
:101C4000309709F0099483E29EE090938703809394
:101C5000860360E773E083E493E00E941F14882307
:101C600009F4B6C080917403C82FC27081FF05C00B
:101C70001092870310928603ABC08BE793E00E941B
:101C80004F0D809173038E31C1F040F48D3109F016
:101C90007BC080912E03809376037BC08F3141F10E
:101CA000803209F071C020917603309175039091D4
:101CB0002E03E0E3F3E080E03DC080917503909156
:101CC0002E03981790F090E0FC01EE0FFF1FE25DED
:101CD000FC4F218120937603880F991FFC01E05D62
:101CE000FC4F808180937703C1E0C093780351C09B
:101CF000309176034091750320912E032A3008F02D
:101D000040C0822F90E0FC01EE0FFF1FE25DFC4F10
:101D10004183880F991FFC01E05DFC4F30832F5FEA
:101D200020932E032DC0DF0111974C91431729F00A
:101D30008F5F32968913F7CF24C040814213F8CFCA
:101D40008A30F9F0492F50E041505109282F30E0F6
:101D50002417350794F4D901AA0FBB1FA25DBC4F0D
:101D6000220F331FF901E05DFC4F21813281129671
:101D70003C932E9311978F5FE9CF915090932E0350
:101D8000C1E0C093770305C08091740381608093A4
:101D90007403809174038260809374038EEC9EE0E0
:101DA000909387038093860360E773E08BE793E06B
:101DB0000E949F0D882361F083E493E00E949A14AF
:101DC000892B09F055CF8BE793E00E94760D50CF19
:101DD00080E0CF91089510922E032BE030E043E095
:101DE00050E06FE473E083E493E00E94D613109216
:101DF00087031092860389E080937B03ECE7F3E08E
:101E000010821182128280EE838381E084831582A6
:101E10001682178283E493E0909385038093840372
:101E20008BE793E00E94350D08950E941B0E0895E4
:101E3000DA0190E050E020912E035217D0F4252FC4
:101E400030E0F901EE0FFF1FE25DFC4F41814813C6
:101E50000EC04C91941758F4220F331FF901E05D26
:101E6000FC4F2081FB01E90FF11D20839F5F5F5F25
:101E7000E2CF9C9308951F920F920FB60F921124F8
:101E80002F933F934F935F936F937F938F939F9382
:101E9000AF93BF93EF93FF93E0918903F0918A038F
:101EA000309731F060918B0370918C0380E009953D
:101EB000FF91EF91BF91AF919F918F917F916F9122
:101EC0005F914F913F912F910F900FBE0F901F90F8
:101ED00018951F920F920FB60F9211242F933F93D4
:101EE0004F935F936F937F938F939F93AF93BF9322
:101EF000EF93FF93E0918903F0918A03309739F0D3
:101F000060918B0370918C0381E0099502C010925F
:101F10008100FF91EF91BF91AF919F918F917F9140
:101F20006F915F914F913F912F910F900FBE0F9046
:101F30001F9018951F920F920FB60F9211242F9396
:101F40003F934F935F936F937F938F939F93AF9341
:101F5000BF93EF93FF93E0918903F0918A03309749
:101F600039F060918B0370918C0382E0099502C077
:101F700010928100FF91EF91BF91AF919F918F914E
:101F80007F916F915F914F913F912F910F900FBE75
:101F90000F901F9018951F920F920FB60F92112459
:101FA0002F933F934F935F936F937F938F939F9361
:101FB000AF93BF93EF93FF93E0918903F0918A036E
:101FC000309739F060918B0370918C0383E0099511
:101FD00002C010928100FF91EF91BF91AF919F914C
:101FE0008F917F916F915F914F913F912F910F90C2
:101FF0000FBE0F901F901895EF92FF920F931F93B3
:10200000A1E8B0E01C92E8E8F3E06083109285005C
:102010001092840090E1299F90011124942F9370D5
:10202000292B209380009C914C70440F9871492B70
:102030004C9396B3976296BBAFE6B0E09C91987DC7
:102040009C939C91892B8C9312830183F482E3826D
:102050001F910F91FF90EF900895E1E8F0E08081EB
:10206000909188039770887F892B80830895E1E899
:10207000F0E08081887F808308950E94371010925D
:1020800085001092840008952FB7F8948091840001
:10209000909185002FBF0895813049F018F082306B
:1020A00059F00895709387006093860008957093A7
:1020B000890060938800089570938B0060938A0074
:1020C0000895813069F038F0823079F480918A0087
:1020D00090918B00089580918600909187000895DB
:1020E0008091880090918900089580E090E00895A3
:1020F0001F920F920FB60F9211242F933F934F937D
:102100005F936F937F938F939F93AF93BF93EF935F
:10211000FF93E0918E03F0918F03309731F080911F
:10212000900390919103099502C01092B100FF9124
:10213000EF91BF91AF919F918F917F916F915F913F
:102140004F913F912F910F900FBE0F901F901895B8
:102150001F920F920FB60F9211242F933F934F931C
:102160005F936F937F938F939F93AF93BF93EF93FF
:10217000FF93E0918E03F0918F03309731F08091BF
:10218000900390919103099502C01092B100FF91C4
:10219000EF91BF91AF919F918F917F916F915F91DF
:1021A0004F913F912F910F900FBE0F901F90189558
:1021B000EF92FF920F931F931092B10060938D03E3
:1021C0001092B2004093B0002093B300BA9AB99A2B
:1021D000B89A813059F0823091F0809170008D7FF3
:1021E00080937000809170008E7F11C0809170008C
:1021F0008D7F8093700080917000816008C0809115
:1022000070008E7F80937000809170008260809358
:10221000700010938F0300938E03F0929103E0926D
:1022200090031F910F91FF90EF9008951092B100CD
:102230001092B200089580918D038093B1000895AB
:102240001092B10008959FB7F8948091B2009FBF9B
:102250000895A2E9B3E08C931996ED91FC911A9739
:102260001B964D915C911C9712966C91099508955F
:102270001F920F920FB60F9211242F933F934F93FB
:102280005F936F937F938F939F93AF93BF93EF93DE
:10229000FF93E091B900E87FE83F09F4E6C0E93C2C
:1022A00008F0E8C0E695E695E695F0E0EE0FFF1F32
:1022B000EF52FF4F859194918F939F9308951092C1
:1022C00094038091930314C090919403809195039B
:1022D000981798F490919403809194038F5F809362
:1022E0009403E0919603F0919703E90FF11D80812B
:1022F0008093BB0085ECB6C006C01092950385E0C4
:10230000BAC0AFC014C01092950381E0B4C0E09190
:102310009603F0919703909194038091BB00E90F8D
:10232000F11D8083809194038F5F8093940380914B
:1023300094032091950345C0E0919603F091970393
:10234000909194038091BB00E90FF11D80838091EF
:1023500094038F5F809394031092950383E08BC066
:102360001092940388E00E94291190919403809127
:102370009803981760F490919403809194038F5F71
:1023800080939403E0919903F0919A03AECF83E395
:102390008093BB0045C089E00E942911809195037C
:1023A00081115FC085EC8093BC001092920365C0E0
:1023B0001092940386E00E94291180919403209149
:1023C000980390E0019630E0821793074CF592CF86
:1023D000109294038AE0EFCF12C0E0919903F0913C
:1023E0009A03909194038091BB00E90FF11D8083C3
:1023F000809194038F5F8093940387E03CC0E091C9
:102400009903F0919A03909194038091BB00E90F96
:10241000F11D8083809194038F5F80939403CDCFCF
:1024200085E820C0E0919903F0919A03909194037C
:102430008091BB00E90FF11D8083809194038F5F31
:10244000809394038BE017C080919203863011F43F
:1024500087E001C08BE00E942911809195038823B9
:1024600061F085EE8093BC0008C085EC8093BC00D1
:1024700080E001C08CE00E942911FF91EF91BF9193
:10248000AF919F918F917F916F915F914F913F910C
:102490002F910F900FBE0F901F9018959C011092D6
:1024A000BC0095B7906195BF97B19F7C97B998B1E3
:1024B0009F7C98B91092B90080E28093B800109286
:1024C00092032115310529F030939C0320939B033F
:1024D00006C089EA92E190939C0380939B037093DA
:1024E0009E0360939D0385EC8093BC001092BA001C
:1024F0000895EAEBF0E09081917090839081880FCD
:10250000982B908308958091BA008695089588232A
:1025100021F08091BA00816003C08091BA008E7F63
:102520008093BA00089580919203873021F08091C2
:1025300092038B3019F485EC8093BC008091B90034
:10254000887F883F19F085ED8093BC00109292033C
:1025500008950E949312089590919203992321F077
:10256000909192039C30A9F49091BC0094FD11C00D
:1025700094E0909392035093970340939603609353
:102580009503880F8093930385EE8093BC0081E0D0
:10259000089580E0089590919203992321F09091FD
:1025A00092039C30B1F49091BC0094FD12C092E073
:1025B00090939203509397034093960360939503EF
:1025C000880F81608093930385EE8093BC0081E047
:1025D000089580E0089590919203983041F47093AB
:1025E0009A03609399038093980381E0089580E0B3
:1025F000089590919203963021F0909192039A3031
:1026000041F470939A03609399038093980381E057
:10261000089580E00895EFE9F3E0118210821382BB
:10262000128214821682158285B7816085BF089553
:10263000EFE9F3E0248181E090E0022E02C0880FF0
:10264000991F0A94E2F740815181482B592B5183FD
:1026500040832F5F248308952091A1033091A2032A
:10266000822B932B9093A2038093A10320919F032D
:102670003091A0038217930761F488958091A40399
:102680009091A50301969093A5038093A40381E004
:10269000089580E00895EFE9F3E080959095228118
:1026A0003381822393239383828308951F920F9211
:1026B0000FB60F9211248F939F93EF93FF93809106
:1026C000AB038F5F8093AB039091AA038917D0F47B
:1026D0008091A6039091A70301969093A7038093FE
:1026E000A60392BD81BDE091A803F091A903CF019B
:1026F00001969093A9038093A803818180BDFA9AE3
:10270000F99A01C0FB98FF91EF919F918F910F90E3
:102710000FBE0F901F901895E6EAF3E01582138222
:1027200012821FBA0895F99912C0FB01861B970BFC
:102730002E2F261B241748F49C012E0F3F1F32BD5D
:1027400021BDF89A20B52193F3CF81E0089580E070
:1027500008959C019FB3892F827091FD1CC0E09168
:10276000A803F091A903EF2BB9F43093A7032093AA
:10277000A6037093A9036093A8034093AA03109241
:10278000AB0332BD21BDFB01808180BDFA9AF99A6D
:10279000FB9A81E0089580E0089581E02091AB03E9
:1027A0009091AA03291708F480E00895FC01518351
:1027B00040831382128235832483778366837187F3
:1027C00060877387628708951F93CF93DF93EC012F
:1027D0001FB7F8942A813B8188819981281739078E
:1027E00044F54C815D81888599850E9457166C81DE
:1027F0007D8188859985860F971F998788874E8167
:102800005F81E881F9816E9F90016F9F300D7E9FFF
:10281000300D1124240F351F8217930710F05987AC
:1028200048878A819B8101969B838A831FBF81E0B1
:1028300002C01FBF80E0DF91CF911F9108951F93C9
:10284000CF93DF931FB7F894FC0122813381232BB0
:1028500019F41FBF80E02AC09B01EC0162857385DB
:1028600044815581C9010E9457168A819B81019735
:102870009B838A836C817D818A859B85860F971FC8
:102880009B878A874E815F81E881F9816E9F9001E5
:102890006F9F300D7E9F300D1124240F351F82173E
:1028A000930710F05B874A871FBF81E0DF91CF91CC
:1028B0001F9108950F931F93CF93FC01CFB7F89406
:1028C0008281938120813181821793072CF5448185
:1028D0005581A285B385A41BB50BB387A28706815A
:1028E0001781A017B10770F421503109249FD0013E
:1028F000259FB00D349FB00D112498012A0F3B1F66
:1029000033872287019693838283828593850E94F1
:102910005716CFBF81E002C0CFBF80E0CF911F919B
:102920000F910895FC018081918122813381821B66
:10293000930B0895FC01828193810895ECEAF3E002
:1029400010821182128213821482158216821782DB
:102950009187808708956093B0037093B10380934B
:10296000B2039093B30308956091B0037091B103E3
:102970008091B2039091B3030895ECEAF3E04481AF
:1029800055816681778180819181A281B381840F95
:10299000951FA61FB71F80839183A283B3830895D9
:1029A0006091AC037091AD038091AE039091AF0341
:1029B0000895CF92DF92EF92FF92C090AC03D09037
:1029C000AD03E090AE03F090AF03E091B403F0915B
:1029D000B503309729F00995C60ED71EE81EF91EDB
:1029E000C701B601FF90EF90DF90CF900895DC0112
:1029F000892BD9F061157105C1F011967C936E9306
:102A000013961C921E921297FB0132968591949117
:102A100015969C938E931497FB018591949117962C
:102A20009C938E93169781E0089580E00895DC01D1
:102A300014966D917C9115971696ED91FC911797D0
:102A4000029609950895DC01892B09F42DC0ED91BA
:102A5000FC9111973496259134912115310521F17E
:102A6000F901849168131CC0319625913491119617
:102A70003C932E93F901859194910097B9F01396A8
:102A80001C921E921297F901329625913491159657
:102A90003C932E93149717969C938E93169706C08B
:102AA0002D5F3F4FF901D7CF80E0089581E0089571
:102AB0008AE990E00E949E1464E670E080E090E075
:102AC0000E94AB14E12CF12C07E910E02CE942E064
:102AD00067E082E00E94D8100E941B1178940E9447
:102AE000AF0C0E9429090E94D20A0E94C1030E94D1
:102AF00010050E94FD050E940A0D0E94A1090E9476
:102B0000130B0E9419040E945B050E943406F3CF48
:102B1000A29FB001B39FC001A39F700D811D11241E
:102B2000911DB29F700D811D1124911D08950E9469
:102B30008815A59F900DB49F900DA49F800D911DA9
:102B40001124089597FB072E16F4009407D077FD03
:102B500009D00E943A1607FC05D03EF49095819565
:102B60009F4F0895709561957F4F0895A1E21A2EA9
:102B7000AA1BBB1BFD010DC0AA1FBB1FEE1FFF1F21
:102B8000A217B307E407F50720F0A21BB30BE40B71
:102B9000F50B661F771F881F991F1A9469F76095B8
:102BA0007095809590959B01AC01BD01CF01089572
:102BB0002F923F924F925F926F927F928F929F924D
:102BC000AF92BF92CF92DF92EF92FF920F931F933B
:102BD000CF93DF93CDB7DEB7CA1BDB0B0FB6F894EC
:102BE000DEBF0FBECDBF09942A88398848885F842C
:102BF0006E847D848C849B84AA84B984C884DF809D
:102C0000EE80FD800C811B81AA81B981CE0FD11D80
:102C10000FB6F894DEBF0FBECDBFED010895EE0FE5
:102C2000FF1F0590F491E02D09940F93083090F068
:102C3000982F872F762F652F542F432F322F22273F
:102C40000850F4CF220F331F441F551F661F771FF4
:102C5000881F991F0A95B2F70F9108950024A7FDC8
:102C600000942A1730054005500560057005800561
:102C700090050895AA1BBB1B51E107C0AA1FBB1FEB
:102C8000A617B70710F0A61BB70B881F991F5A95F8
:102C9000A9F780959095BC01CD010895FB01DC0159
:102CA00002C005900D9241505040D8F70895FB01A5
:102CB000DC0102C001900D9241505040D8F70895B8
:042CC000F894FFCFB6
:00000001FF
